{
  "_format": "hh-sol-artifact-1",
  "contractName": "TaskContract",
  "sourceName": "contracts/TaskContract.sol",
  "abi": [
    {
      "anonymous": false,
      "inputs": [
        {
          "indexed": false,
          "internalType": "address",
          "name": "recipient",
          "type": "address"
        },
        {
          "indexed": false,
          "internalType": "uint256",
          "name": "taskId",
          "type": "uint256"
        }
      ],
      "name": "AddTask",
      "type": "event"
    },
    {
      "anonymous": false,
      "inputs": [
        {
          "indexed": false,
          "internalType": "uint256",
          "name": "taskId",
          "type": "uint256"
        },
        {
          "indexed": false,
          "internalType": "bool",
          "name": "isCompleted",
          "type": "bool"
        }
      ],
      "name": "CompleteTask",
      "type": "event"
    },
    {
      "anonymous": false,
      "inputs": [
        {
          "indexed": false,
          "internalType": "uint256",
          "name": "taskId",
          "type": "uint256"
        },
        {
          "indexed": false,
          "internalType": "bool",
          "name": "isDeleted",
          "type": "bool"
        }
      ],
      "name": "DeleteTask",
      "type": "event"
    },
    {
      "inputs": [
        {
          "internalType": "string",
          "name": "taskText",
          "type": "string"
        },
        {
          "internalType": "bool",
          "name": "isDeleted",
          "type": "bool"
        },
        {
          "internalType": "bool",
          "name": "isCompleted",
          "type": "bool"
        }
      ],
      "name": "addTask",
      "outputs": [],
      "stateMutability": "nonpayable",
      "type": "function"
    },
    {
      "inputs": [
        {
          "internalType": "uint256",
          "name": "taskId",
          "type": "uint256"
        },
        {
          "internalType": "bool",
          "name": "isCompleted",
          "type": "bool"
        }
      ],
      "name": "completeTask",
      "outputs": [],
      "stateMutability": "nonpayable",
      "type": "function"
    },
    {
      "inputs": [
        {
          "internalType": "uint256",
          "name": "taskId",
          "type": "uint256"
        },
        {
          "internalType": "bool",
          "name": "isDeleted",
          "type": "bool"
        }
      ],
      "name": "deleteTask",
      "outputs": [],
      "stateMutability": "nonpayable",
      "type": "function"
    },
    {
      "inputs": [],
      "name": "getCompletedTaskCount",
      "outputs": [
        {
          "internalType": "uint256",
          "name": "",
          "type": "uint256"
        }
      ],
      "stateMutability": "view",
      "type": "function"
    },
    {
      "inputs": [],
      "name": "getMyTasks",
      "outputs": [
        {
          "components": [
            {
              "internalType": "uint256",
              "name": "id",
              "type": "uint256"
            },
            {
              "internalType": "address",
              "name": "username",
              "type": "address"
            },
            {
              "internalType": "string",
              "name": "taskText",
              "type": "string"
            },
            {
              "internalType": "bool",
              "name": "isDeleted",
              "type": "bool"
            },
            {
              "internalType": "bool",
              "name": "isCompleted",
              "type": "bool"
            }
          ],
          "internalType": "struct TaskContract.Task[]",
          "name": "",
          "type": "tuple[]"
        }
      ],
      "stateMutability": "view",
      "type": "function"
    },
    {
      "inputs": [],
      "name": "getTaskCount",
      "outputs": [
        {
          "internalType": "uint256",
          "name": "",
          "type": "uint256"
        }
      ],
      "stateMutability": "view",
      "type": "function"
    }
  ],
  "bytecode": "0x608060405234801561001057600080fd5b5061134f806100206000396000f3fe608060405234801561001057600080fd5b50600436106100625760003560e01c8063167faa2314610067578063591744e2146100855780636e13f818146100a15780638a7abe76146100bf578063aaba2907146100db578063c17a340e146100f7575b600080fd5b61006f610115565b60405161007c9190610a65565b60405180910390f35b61009f600480360381019061009a9190610af8565b610241565b005b6100a9610322565b6040516100b69190610d5f565b60405180910390f35b6100d960048036038101906100d49190610eb6565b610689565b005b6100f560048036038101906100f09190610af8565b610838565b005b6100ff610919565b60405161010c9190610a65565b60405180910390f35b6000806000905060005b600080549050811015610239573373ffffffffffffffffffffffffffffffffffffffff166001600083815260200190815260200160002060009054906101000a900473ffffffffffffffffffffffffffffffffffffffff1673ffffffffffffffffffffffffffffffffffffffff161480156101d0575060001515600082815481106101ad576101ac610f25565b5b906000526020600020906004020160030160009054906101000a900460ff161515145b8015610212575060011515600082815481106101ef576101ee610f25565b5b906000526020600020906004020160030160019054906101000a900460ff161515145b1561022657818061022290610f83565b9250505b808061023190610f83565b91505061011f565b508091505090565b3373ffffffffffffffffffffffffffffffffffffffff166001600084815260200190815260200160002060009054906101000a900473ffffffffffffffffffffffffffffffffffffffff1673ffffffffffffffffffffffffffffffffffffffff160361031e5780600083815481106102bc576102bb610f25565b5b906000526020600020906004020160030160016101000a81548160ff0219169083151502179055507fa4a1d94d1676fe30c56127e96641c5e95021748f1e6b8271009dde8177cc2ab48282604051610315929190610fda565b60405180910390a15b5050565b60606000808054905067ffffffffffffffff81111561034457610343610d8b565b5b60405190808252806020026020018201604052801561037d57816020015b61036a610a03565b8152602001906001900390816103625790505b5090506000805b6000805490508110156105cf573373ffffffffffffffffffffffffffffffffffffffff166001600083815260200190815260200160002060009054906101000a900473ffffffffffffffffffffffffffffffffffffffff1673ffffffffffffffffffffffffffffffffffffffff161480156104355750600015156000828154811061041257610411610f25565b5b906000526020600020906004020160030160009054906101000a900460ff161515145b156105bc576000818154811061044e5761044d610f25565b5b90600052602060002090600402016040518060a0016040529081600082015481526020016001820160009054906101000a900473ffffffffffffffffffffffffffffffffffffffff1673ffffffffffffffffffffffffffffffffffffffff1673ffffffffffffffffffffffffffffffffffffffff1681526020016002820180546104d790611032565b80601f016020809104026020016040519081016040528092919081815260200182805461050390611032565b80156105505780601f1061052557610100808354040283529160200191610550565b820191906000526020600020905b81548152906001019060200180831161053357829003601f168201915b505050505081526020016003820160009054906101000a900460ff161515151581526020016003820160019054906101000a900460ff1615151515815250508383815181106105a2576105a1610f25565b5b602002602001018190525081806105b890610f83565b9250505b80806105c790610f83565b915050610384565b5060008167ffffffffffffffff8111156105ec576105eb610d8b565b5b60405190808252806020026020018201604052801561062557816020015b610612610a03565b81526020019060019003908161060a5790505b50905060005b8281101561067f5783818151811061064657610645610f25565b5b602002602001015182828151811061066157610660610f25565b5b6020026020010181905250808061067790610f83565b91505061062b565b5080935050505090565b60008080549050905060006040518060a001604052808381526020013373ffffffffffffffffffffffffffffffffffffffff168152602001868152602001851515815260200184151581525090806001815401808255809150506001900390600052602060002090600402016000909190919091506000820151816000015560208201518160010160006101000a81548173ffffffffffffffffffffffffffffffffffffffff021916908373ffffffffffffffffffffffffffffffffffffffff1602179055506040820151816002019081610764919061120f565b5060608201518160030160006101000a81548160ff02191690831515021790555060808201518160030160016101000a81548160ff0219169083151502179055505050336001600083815260200190815260200160002060006101000a81548173ffffffffffffffffffffffffffffffffffffffff021916908373ffffffffffffffffffffffffffffffffffffffff1602179055507f1f54e1ba1832d428fbd7e7792beaf62b1fc5a382c207ffd614209c1413e94fda338260405161082a9291906112f0565b60405180910390a150505050565b3373ffffffffffffffffffffffffffffffffffffffff166001600084815260200190815260200160002060009054906101000a900473ffffffffffffffffffffffffffffffffffffffff1673ffffffffffffffffffffffffffffffffffffffff16036109155780600083815481106108b3576108b2610f25565b5b906000526020600020906004020160030160006101000a81548160ff0219169083151502179055507ff88a35c3d2016c409a46570b994a17b408dbc83c14a03f521512d50b85386d06828260405161090c929190610fda565b60405180910390a15b5050565b6000806000905060005b6000805490508110156109fb573373ffffffffffffffffffffffffffffffffffffffff166001600083815260200190815260200160002060009054906101000a900473ffffffffffffffffffffffffffffffffffffffff1673ffffffffffffffffffffffffffffffffffffffff161480156109d4575060001515600082815481106109b1576109b0610f25565b5b906000526020600020906004020160030160009054906101000a900460ff161515145b156109e85781806109e490610f83565b9250505b80806109f390610f83565b915050610923565b508091505090565b6040518060a0016040528060008152602001600073ffffffffffffffffffffffffffffffffffffffff168152602001606081526020016000151581526020016000151581525090565b6000819050919050565b610a5f81610a4c565b82525050565b6000602082019050610a7a6000830184610a56565b92915050565b6000604051905090565b600080fd5b600080fd5b610a9d81610a4c565b8114610aa857600080fd5b50565b600081359050610aba81610a94565b92915050565b60008115159050919050565b610ad581610ac0565b8114610ae057600080fd5b50565b600081359050610af281610acc565b92915050565b60008060408385031215610b0f57610b0e610a8a565b5b6000610b1d85828601610aab565b9250506020610b2e85828601610ae3565b9150509250929050565b600081519050919050565b600082825260208201905092915050565b6000819050602082019050919050565b610b6d81610a4c565b82525050565b600073ffffffffffffffffffffffffffffffffffffffff82169050919050565b6000610b9e82610b73565b9050919050565b610bae81610b93565b82525050565b600081519050919050565b600082825260208201905092915050565b60005b83811015610bee578082015181840152602081019050610bd3565b60008484015250505050565b6000601f19601f8301169050919050565b6000610c1682610bb4565b610c208185610bbf565b9350610c30818560208601610bd0565b610c3981610bfa565b840191505092915050565b610c4d81610ac0565b82525050565b600060a083016000830151610c6b6000860182610b64565b506020830151610c7e6020860182610ba5565b5060408301518482036040860152610c968282610c0b565b9150506060830151610cab6060860182610c44565b506080830151610cbe6080860182610c44565b508091505092915050565b6000610cd58383610c53565b905092915050565b6000602082019050919050565b6000610cf582610b38565b610cff8185610b43565b935083602082028501610d1185610b54565b8060005b85811015610d4d5784840389528151610d2e8582610cc9565b9450610d3983610cdd565b925060208a01995050600181019050610d15565b50829750879550505050505092915050565b60006020820190508181036000830152610d798184610cea565b905092915050565b600080fd5b600080fd5b7f4e487b7100000000000000000000000000000000000000000000000000000000600052604160045260246000fd5b610dc382610bfa565b810181811067ffffffffffffffff82111715610de257610de1610d8b565b5b80604052505050565b6000610df5610a80565b9050610e018282610dba565b919050565b600067ffffffffffffffff821115610e2157610e20610d8b565b5b610e2a82610bfa565b9050602081019050919050565b82818337600083830152505050565b6000610e59610e5484610e06565b610deb565b905082815260208101848484011115610e7557610e74610d86565b5b610e80848285610e37565b509392505050565b600082601f830112610e9d57610e9c610d81565b5b8135610ead848260208601610e46565b91505092915050565b600080600060608486031215610ecf57610ece610a8a565b5b600084013567ffffffffffffffff811115610eed57610eec610a8f565b5b610ef986828701610e88565b9350506020610f0a86828701610ae3565b9250506040610f1b86828701610ae3565b9150509250925092565b7f4e487b7100000000000000000000000000000000000000000000000000000000600052603260045260246000fd5b7f4e487b7100000000000000000000000000000000000000000000000000000000600052601160045260246000fd5b6000610f8e82610a4c565b91507fffffffffffffffffffffffffffffffffffffffffffffffffffffffffffffffff8203610fc057610fbf610f54565b5b600182019050919050565b610fd481610ac0565b82525050565b6000604082019050610fef6000830185610a56565b610ffc6020830184610fcb565b9392505050565b7f4e487b7100000000000000000000000000000000000000000000000000000000600052602260045260246000fd5b6000600282049050600182168061104a57607f821691505b60208210810361105d5761105c611003565b5b50919050565b60008190508160005260206000209050919050565b60006020601f8301049050919050565b600082821b905092915050565b6000600883026110c57fffffffffffffffffffffffffffffffffffffffffffffffffffffffffffffffff82611088565b6110cf8683611088565b95508019841693508086168417925050509392505050565b6000819050919050565b600061110c61110761110284610a4c565b6110e7565b610a4c565b9050919050565b6000819050919050565b611126836110f1565b61113a61113282611113565b848454611095565b825550505050565b600090565b61114f611142565b61115a81848461111d565b505050565b5b8181101561117e57611173600082611147565b600181019050611160565b5050565b601f8211156111c35761119481611063565b61119d84611078565b810160208510156111ac578190505b6111c06111b885611078565b83018261115f565b50505b505050565b600082821c905092915050565b60006111e6600019846008026111c8565b1980831691505092915050565b60006111ff83836111d5565b9150826002028217905092915050565b61121882610bb4565b67ffffffffffffffff81111561123157611230610d8b565b5b61123b8254611032565b611246828285611182565b600060209050601f8311600181146112795760008415611267578287015190505b61127185826111f3565b8655506112d9565b601f19841661128786611063565b60005b828110156112af5784890151825560018201915060208501945060208101905061128a565b868310156112cc57848901516112c8601f8916826111d5565b8355505b6001600288020188555050505b505050505050565b6112ea81610b93565b82525050565b600060408201905061130560008301856112e1565b6113126020830184610a56565b939250505056fea2646970667358221220823bf82a3e86c8626cca7b4dbe155514cc8bee4a1bb3e88ea9458eedd363dfc664736f6c63430008110033",
  "linkReferences": {},
  "deployedLinkReferences": {}
}